:1000000045C0000060C000005EC000005CC0000091
:100010005AC0000058C0000056C0000054C0000084
:1000200052C0000050C000004EC000004CC0000094
:100030004AC0000048C0000046C0000044C00000A4
:1000400042C0000040C000003EC000003CC00000B4
:100050003AC0000038C0000036C0000034C00000C4
:1000600032C0000030C000002EC000002CC00000D4
:100070002AC0000028C0000026C0000024C00000E4
:1000800022C0000020C000001EC0000011241FBEBE
:10009000CFEFD0E4DEBFCDBF17E0A0E0B1E0E6E6F1
:1000A000FAE000E00BBF02C007900D92AC3BB10735
:1000B000D9F72BE1ACEBB7E001C01D92A138B20734
:1000C000E1F72DD1CEC49CCF8091C0079091C1079C
:1000D0008830910539F486E090E09093C1078093D1
:1000E000C00708958630910539F482E090E090933E
:1000F000C1078093C00708958230910539F484E0E8
:1001000090E09093C1078093C0070895049731F45D
:1001100088E090E09093C1078093C0070895809194
:10012000C0079091C1078830910539F484E090E0D0
:100130009093C1078093C00708958630910539F4E4
:1001400088E090E09093C1078093C00708958230C3
:10015000910539F486E090E09093C1078093C00741
:100160000895049731F482E090E09093C107809362
:10017000C00708958091C0079091C107883091050C
:1001800039F482E090E09093C1078093C00708950E
:100190008630910539F484E090E09093C107809314
:1001A000C00708958230910539F488E090E090937B
:1001B000C1078093C0070895049731F486E090E06A
:1001C0009093C1078093C00708959C018091C40754
:1001D0009091C5072830310511F401970895223018
:1001E000310509F4019608959C018091BC07909116
:1001F000BD072630310511F40196089524303105EC
:1002000009F4019708958091BC079091BD07209152
:10021000C0073091C1072830310511F401960895C7
:100220002230310509F4019708958091C407909117
:10023000C5072091C0073091C1072830310561F012
:100240002230310549F02430310511F40197089529
:100250002630310509F4019608958091BC079091EC
:10026000BD072091C0073091C1072830310511F436
:10027000019708952230310509F40196089580917F
:10028000C4079091C5072091C0073091C10728305D
:10029000310561F02230310549F02430310511F487
:1002A000019608952630310509F40197089580914B
:1002B000BC079091BD072091C0073091C10728303D
:1002C000310511F4019708952230310511F401969A
:1002D00008952430310511F4019708952630310531
:1002E00009F4019608958091C4079091C507209163
:1002F000C0073091C1072830310511F401970895E6
:100300002230310511F4019608952430310511F49D
:10031000019608952630310509F4019708958EE07D
:1003200090E09093BD078093BC079093C50780939E
:10033000C40788E090E09093C1078093C0071092B3
:100340007C1B8BDFEC019BDF45E050E0BE01DBD086
:100350005ADFEC016ADF45E050E0BE01D4D0609185
:10036000BC077091BD0744E050E08091C4079091B4
:10037000C507C9D00ED06091BC077091BD0741E0A0
:1003800050E08091C4079091C507CED0A9D01ED36C
:10039000FFCF8091040190910501892BF9F0E0E0F5
:1003A000F1E080E090E06DE143E050E020813181B8
:1003B000629FD001639FB00D112422813381A20F6F
:1003C000B31FAA0FBB1FA651BB4E4D935C93019662
:1003D000369624813581232B49F702C080E090E0D6
:1003E0009C01220F331FF901E80FF91FEE0FFF1FC9
:1003F000E050FF4F40815181DF018DE1849FF0018A
:10040000859FF00D112412968D919C911397E80F02
:10041000F91FEE0FFF1FE651FB4E83E090E0918342
:10042000808308952DE1AC01249FC001259F900D8C
:100430001124680F791FFB01EE0FFF1FE65DFE4FD1
:1004400080819181049719F495DE81E0089580E020
:1004500008952DE1AC01249FC001259F900D11242A
:10046000680F791FFB01EE0FFF1FE65DFE4F208135
:1004700031812115310561F02130310559F02230EB
:10048000310551F081E02430310539F480E00895E0
:1004900081E0089580E0089581E008959923D4F0E3
:1004A0007723D4F02DE1289FF001299FF00D11242E
:1004B0006E0F7F1FFB01EE0FFF1FE65DFE4F2081D9
:1004C00031812530310551F081E02430310539F09A
:1004D00080E0089580E0089580E0089581E0089527
:1004E0008091C0079091C1077FDE9093BD078093F4
:1004F000BC078091C0079091C10767DE9093C50744
:100500008093C40708952DE1FC012E9FC0012F9F09
:10051000900D1124680F791FFB01EE0FFF1FE85AA1
:10052000F14F5183408308952DE1FC012E9FC001BE
:100530002F9F900D1124680F791FFB01EE0FFF1FF5
:10054000E651FB4E5183408308952F923F924F9284
:100550005F926F927F928F929F92AF92BF92CF9253
:10056000DF92EF92FF920F931F93CF93DF93A0E060
:10057000B0E0312C212C6894442442F8512C0F2EE9
:10058000F5E08F2E912CF02D0F2EF6E06F2E712CB2
:10059000F02D6894AA24A1F8B12C01E010E07D01AF
:1005A00071C0F601E80FF91FEE0FFF1FEA53F84F75
:1005B000208131812630310509F058C0EC012196A7
:1005C000D601AC0FBD1FAA0FBB1FAA53B84FBC0169
:1005D000FD01AC0104C02D3131050CF046C09B017A
:1005E0006F5F7F4F819191910697A9F7CA012417F8
:1005F0003507E4F1CC0DDD1DFE01EE0FFF1FE65DBA
:10060000FE4F0196419151914115510579F4E11444
:10061000F10421F04CE1E416F10421F411961C924E
:100620001E9239C011961C930E9335C0413051056E
:1006300021F41196BC92AE922EC04530510571F452
:100640004D915C9111971416150624F411967C9225
:100650006E9221C011969C928E921DC0443051051D
:10066000D1F411965C924E9216C0CA0101968D315A
:1006700091050CF496CF8FEFE81AF80A2DE1E216F7
:10068000F10479F0832D922D4DE14E9D60014F9D37
:10069000D00C112486CF1296281739070CF0B1CF51
:1006A000E5CFDF91CF911F910F91FF90EF90DF90F9
:1006B000CF90BF90AF909F908F907F906F905F9002
:1006C0004F903F902F900895FF920F931F93CF93D9
:1006D000DF9325DD05DF0F2EFDE1FF2EF02D06E077
:1006E00010E07BC08091C4079091C507F89EF0018F
:1006F000F99EF00D11248091BC079091BD07E80F81
:10070000F91FEE0FFF1FEA53F84F118300837BDDC3
:10071000EC018BDDBE01C2DE882319F0D5DCE0DE02
:100720005CC08091C0079091C1075EDDEC018091B3
:10073000C0079091C10749DDBE01B0DE882311F0EA
:10074000CFDE4BC08ADDEC019ADDBE01A7DE882337
:1007500011F0E5DC42C0ABDDEC01C5DDBE019EDE83
:10076000882309F43AC0BCDEDADCBADE8091C40723
:100770009091C507F89EF001F99EF00D112480912B
:10078000BC079091BD07E80FF91FEE0FFF1FEA535A
:10079000F84F11830083EEDC8ADDEC01A4DDBE019D
:1007A0007DDE8823C9F09CDEBADC9ADE8091C40726
:1007B0009091C507F89EF001F99EF00D11248091EB
:1007C000BC079091BD07E80FF91FEE0FFF1FEA531A
:1007D000F84F1183008301C0CDDC8091C007909158
:1007E000C107F3DCEC018091C0079091C107FCDCEC
:1007F000FC9E9001FD9E300D1124820F931FFC0181
:10080000EE0FFF1FE65DFE4F80819181049709F096
:1008100069CF8091C4079091C5072DE1289FF00111
:10082000299FF00D11248091BC079091BD07E80F1E
:10083000F91FEE0FFF1FEA53F84F86E090E0918317
:10084000808383DEDF91CF911F910F91FF900895F8
:100850001F93CF93DF938091C4079091C5071DE14B
:10086000189FF001199FF00D11248091BC07909101
:10087000BD07E80FF91FEE0FFF1FE85AF14F81E0A7
:1008800090E091838083D1DCEC01BDDC1C9F900162
:100890001D9F300D1124820F931FFC01EE0FFF1FCF
:1008A000E65DFE4F808191810597A4F0ACDCEC0100
:1008B000BCDC2DE1AC01249FC001259F900D1124CB
:1008C000C80FD91FCC0FDD1FC85AD14F85E090E06B
:1008D00099838883D4DCEC01C0DC4DE14C9F90010E
:1008E0004D9F300D1124820F931FFC01EE0FFF1F4F
:1008F000E65DFE4F808191810597A4F0AEDCEC01AE
:10090000BEDC2DE1AC01249FC001259F900D112478
:10091000C80FD91FCC0FDD1FC85AD14F85E090E01A
:100920009983888382DCEC016EDC4DE14C9F900161
:100930004D9F300D1124820F931FFC01EE0FFF1FFE
:10094000E65DFE4F808191810197A1F45CDCEC01B2
:100950006CDC2DE1AC01249FC001259F900D11247A
:10096000C80FD91FCC0FDD1FC85AD14F81E090E0CE
:100970009983888384DCEC0170DC4DE14C9F90010D
:100980004D9F300D1124820F931FFC01EE0FFF1FAE
:10099000E65DFE4F808191810197A1F45EDCEC0160
:1009A0006EDC2DE1AC01249FC001259F900D112428
:1009B000C80FD91FCC0FDD1FC85AD14F81E090E07E
:1009C00099838883DF91CF911F910895CF93DF930F
:1009D00038C03EDF18DCEC0128DCBE013ADD88239C
:1009E00029F18091C0079091C107FEDBEC01809155
:1009F000C0079091C107E9DBBE012BDD81110BC05F
:100A00006FDD6091BC077091BD078091C407909124
:100A1000C50708DD16C021DCEC0131DCBE0119DDA3
:100A2000882311F0A7DB0DC07ADB0BC04DDB58DD4E
:100A30006091BC077091BD078091C4079091C50774
:100A4000F1DC6091BC077091BD078091C407909163
:100A5000C507E8DC882309F4BCCF36DEDF91CF91EF
:060A60000895F894FFCF99
:100A66000E000E0006000D000E0005000C000E0024
:100A760004000B000E0003000B000F0002000B0029
:100A8600100001000C001000000000000000000033
:100A9600000000000000000005000500050005003C
:100AA600050000000000000000000500050005002C
:100AB600050000000000000000000000000000002B
:100AC6000000000000000000000000000000000020
:100AD6000500000001000100010001000500000002
:100AE60000000500010001000100000005000000F3
:100AF60000000000000000000000000000000000F0
:100B060000000000000000000000050000000100D9
:100B160005000100010005000000000005000500B9
:100B260005000100010005000000000000000000B3
:100B360000000000000000000000000000000000AF
:100B46000000000005000000010001000100010096
:100B56000500000000000500050005000100010079
:100B6600050000000000000000000000000000007A
:100B7600000000000000000000000000000005006A
:100B86000100010001000500050000000000000052
:100B96000500050005000100010005000000000039
:100BA600000000000000000000000000000000003F
:100BB6000000000000000000050001000100010027
:100BC6000500000000000000000005000100010013
:100BD6000100010005000000000000000000000008
:100BE60000000000000000000000000000000000FF
:100BF60000000500010001000100050005000500D8
:100C060005000500050001000100050005000500BE
:100C160000000000000000000000000000000000CE
:100C260000000000000000000000000005000100B8
:100C360001000100010001000100010005000100A2
:100C46000100010001000100050000000000000095
:100C5600000000000000000000000000000000008E
:100C66000000000000000500010001000100010075
:100C76000100010001000500010005000500050056
:100C86000100050000000000000000000000000058
:100C9600000000000000000000000000000000004E
:100CA6000500010001000100010001000100010032
:100CB6000100010001000100010001000500000023
:100CC600000000000000000000000000000000001E
:100CD6000000000000000000000005000100010007
:100CE60001000100010001000500050005000500E6
:100CF60001000500050005000000000000000000DE
:100D060000000000000000000000000000000000DD
:100D160000000000000005000500050005000500B4
:100D260001000100010001000500010001000100B1
:100D360005000000000000000000000000000000A8
:100D4600000000000000000000000000000000009D
:100D56000000000000000000050001000100010085
:100D66000500050005000100050000000000000068
:100D7600000000000000000000000000000000006D
:100D8600000000000000000000000000000000005D
:100D96000000050001000100010001000100010042
:100DA6000100010005000000000000000000000036
:100DB600000000000000000000000000000000002D
:100DC6000000000000000000000000000000050018
:100DD60005000400050005000500050005000000EB
:100DE60000000000000000000000000000000000FD
:100DF60000000000000000000000000000000000ED
:100E060000000000000000000000000000000000DC
:100E160000000000000000000000000000000000CC
:00000001FF
