S01A0000536561726368416E6446696E6447757272612E737265631F
S113000045C0000060C000005EC000005CC000008D
S11300105AC0000058C0000056C0000054C0000080
S113002052C0000050C000004EC000004CC0000090
S11300304AC0000048C0000046C0000044C00000A0
S113004042C0000040C000003EC000003CC00000B0
S11300503AC0000038C0000036C0000034C00000C0
S113006032C0000030C000002EC000002CC00000D0
S11300702AC0000028C0000026C0000024C00000E0
S113008022C0000020C000001EC0000011241FBEBA
S1130090CFEFD0E4DEBFCDBF17E0A0E0B1E0E4EAEB
S11300A0F5E000E00BBF02C007900D92A239B10742
S11300B0D9F72EE0A2E9B7E001C01D92AE32B20733
S11300C0E1F702D06DC29CCF8EE090E0909393074D
S11300D0809392079093290E8093280E88E090E0F5
S11300E09093270E8093260E25D2FECF8091260E64
S11300F09091270E8830910539F486E090E0909332
S1130100270E8093260E08958630910539F482E0F7
S113011090E09093270E8093260E089582309105E7
S113012039F484E090E09093270E8093260E08958E
S1130130049731F488E090E09093270E8093260E84
S113014008958091260E9091270E8830910539F4F8
S113015084E090E09093270E8093260E08958630D5
S1130160910539F488E090E09093270E8093260E51
S113017008958230910539F486E090E09093270E3B
S11301808093260E0895049731F482E090E09093D2
S1130190270E8093260E08959C018091280E90913D
S11301A0290E2830310511F40197089522303105C4
S11301B009F4019608959C01809192079091930708
S11301C02630310511F4019608952430310509F4DF
S11301D0019708958091260E9091270E88309105FD
S11301E021F486E090E0E7CF08958230910521F470
S11301F084E090E0E0CF08958630910521F482E018
S113020090E0D9CF0895049721F488E090E0D3CF0B
S1130210089580E090E008958091260E9091270E35
S11302208830910521F486E090E0B6CF08958230BD
S1130230910521F484E090E0AFCF089586309105D4
S113024021F482E090E0A8CF0895049721F488E097
S113025090E0A2CF089580E090E008952DE1AC01F4
S1130260249FC001259F900D1124680F791FFB0165
S1130270EE0FFF1FE050FF4F80819181049721F41E
S113028035DF34DF81E0089580E008952DE1AC018D
S1130290249FC001259F900D1124680F791FFB0135
S11302A0EE0FFF1FE050FF4F2081318121153105F2
S11302B061F02130310559F02230310551F081E0EF
S11302C02430310539F480E0089581E0089580E018
S11302D0089581E00895CF93DF93C091260ED091C5
S11302E0270ECE0168DF9093930780939207CE0187
S11302F053DF9093290E8093280EDF91CF910895B8
S113030080919207909193072091260E3091270EA9
S11303102830310511F4019608952230310509F48D
S1130320019708958091280E9091290E2091260E10
S11303303091270E2830310561F02230310549F023
S11303402430310511F4019708952630310509F45C
S11303500196089580919207909193072091260E1B
S11303603091270E2830310511F401970895223079
S1130370310509F4019608958091920790919307AD
S11303802091260E3091270E2830310529F48091D2
S1130390280E9091290E08952230310529F4809178
S11303A0280E9091290E08952430310531F480915E
S11303B0280E9091290E019608952630310529F4CE
S11303C08091280E9091290E019708951F93CF9341
S11303D0DF938091280E9091290E1DE1189FF00162
S11303E0199FF00D11248091920790919307E80FC3
S11303F0F91FEE0FFF1FEC56F84F81E090E0918358
S1130400808390DFEC017CDF1C9FF0011D9FF00DC9
S11304101124E80FF91FEE0FFF1FE050FF4F20815A
S11304203181253031058CF02DE12C9FF0012D9F79
S1130430F00D11248E0F9F1FFC01EE0FFF1FEC56D1
S1130440F84F85E090E09183808396DFEC0182DFB2
S11304502DE12C9FF0012D9FF00D1124E80FF91FC1
S1130460EE0FFF1FE050FF4F208131812530310511
S11304708CF02DE12C9FF0012D9FF00D11248E0F97
S11304809F1FFC01EE0FFF1FEC56F84F85E090E034
S11304909183808347DFEC0133DF2DE12C9FF00152
S11304A02D9FF00D1124E80FF91FEE0FFF1FE050F0
S11304B0FF4F2081318121303105C1F51DE11C9FA1
S11304C0F0011D9FF00D11248E0F9F1FFC01EE0FF4
S11304D0FF1FEC56F84F81E090E09183808322DF88
S11304E0EC010EDF1C9F90011D9F300D1124820F23
S11304F0931FFC01EE0FFF1FE050FF4F808191819D
S11305000197A1F427DFEC0137DF2DE1AC01249F33
S1130510C001259F900D1124C80FD91FCC0FDD1FDA
S1130520CC56D84F81E090E099838883DF91CF91B6
S11305301F9108950F931F93CF93DF9347DF4ADEF4
S1130540EC016ADEBE01A2DE8823D1F0C091260E42
S1130550D091270ECE012FDE8C01CE011DDEB80115
S113056095DE81110BC0B7DE6091920770919307FD
S11305708091280E9091290E71DE0DC0E2DD0BC032
S1130580B5DDA9DE60919207709193078091280EE2
S11305909091290E63DEDF91CF911F910F91089501
S10705A0F894FFCFF9
S11305A40000000000000000000000000500050039
S11305B4050005000500050005000500050005000B
S11305C4050005000500050005000000000000000A
S11305D40000000000000000000000000000000013
S11305E400000000000005000100010005000100F6
S11305F401000500010001000100010001000100E7
S113060401000500000000000000000000000000DC
S113061400000000000000000000000000000000D2
S113062405000100010005000100010001000500AE
S1130634010005000500050001000100050000009B
S113064400000000000000000000000000000000A2
S1130654000000000000000000000500010001008B
S11306640100010001000100010001000500050072
S11306740500010001000500000000000000000066
S11306840000000000000000000000000000000062
S11306940000000005000100010001000100010048
S11306A4010001000100050005000500010001002E
S11306B4050000000000000000000000000000002D
S11306C4000000000000000000000000000005001D
S11306D4010001000100010001000100010001000A
S11306E401000100010001000100050000000000F8
S11306F400000000000000000000000000000000F2
S113070400000000000000000500010001000100D9
S113071401000100010001000500010001000100C5
S113072405000500050000000000000000000000B2
S113073400000000000000000000000000000000B1
S11307440000050001000100010001000100010096
S11307540100050001000100010001000100050081
S11307640000000000000000000000000000000081
S1130774000000000000000000000000050001006B
S11307840100010001000100010001000500010055
S1130794050005000500010005000000000000003C
S11307A40000000000000000000000000000000041
S11307B40000000000000500010001000100010028
S11307C40100010001000100010001000100010019
S11307D4010005000000000000000000000000000B
S11307E40000000000000000000000000000000001
S11307F405000100010001000100010001000500E1
S113080405000500050001000500050005000000C1
S113081400000000000000000000000000000000D0
S113082400000000000000000000050001000100B9
S113083401000100010001000100010001000500A4
S11308440100010001000500000000000000000098
S11308540000000000000000000000000000000090
S11308640000000005000100010001000100010076
S11308740100010001000500050005000100050058
S1130884050000000000000000000000000000005B
S1130894000000000000000000000000000005004B
S11308A40100010001000100010001000100010038
S11308B40100010001000100010005000000000026
S11308C40000000000000000000000000000000020
S11308D400000000000000000500050005000500FC
S11308E405000500050005000400050005000500D9
S11308F405000500050000000000000000000000E1
S113090400000000000000000000000000000000DF
S113091400000000000000000000000000000000CF
S113092400000000000000000000000000000000BF
S113093400000000000000000000000000000000AF
S1050C340000BA
S9030000FC
