S01A0000536561726368416E6446696E6447757272612E737265631F
S113000045C0000060C000005EC000005CC000008D
S11300105AC0000058C0000056C0000054C0000080
S113002052C0000050C000004EC000004CC0000090
S11300304AC0000048C0000046C0000044C00000A0
S113004042C0000040C000003EC000003CC00000B0
S11300503AC0000038C0000036C0000034C00000C0
S113006032C0000030C000002EC000002CC00000D0
S11300702AC0000028C0000026C0000024C00000E0
S113008022C0000020C000001EC0000011241FBEBA
S1130090CFEFD0E4DEBFCDBF11E0A0E0B1E0EEE0F1
S11300A0F4E000E00BBF02C007900D92AA32B10742
S11300B0D9F72EE0AAE2B1E001C01D92A835B2073B
S11300C0E1F702D0A2C19CCF8EE090E090932B0187
S11300D080932A019093530E8093520E88E090E00F
S11300E09093BF078093BE0744E050E06EE070E059
S11300F08EE090E0BDD0F7D0EC0107D145E050E0B0
S1130100BE01B6D0C6D0EC01D6D045E050E0BE0169
S1130110AFD099D002D023D1FECF80910401909129
S11301200501892BD9F0E0E0F1E04DE123E030E076
S113013080819181489FD001499FB00D1124828113
S11301409381A80FB91FAA0FBB1FA054B84F2D93BA
S11301503C93369684819581892B51F7089580913B
S1130160BE079091BF078830910539F486E090E08E
S11301709093BF078093BE0708958630910539F4A4
S113018082E090E09093BF078093BE070895823089
S1130190910539F484E090E09093BF078093BE0703
S11301A00895049731F488E090E09093BF0780931A
S11301B0BE0708958091BE079091BF0788309105CE
S11301C039F484E090E09093BF078093BE070895CC
S11301D08630910539F488E090E09093BF078093CE
S11301E0BE0708958230910539F486E090E090933B
S11301F0BF078093BE070895049731F482E090E02E
S11302009093BF078093BE0708959C018091520E7E
S11302109091530E2830310511F40197089522303E
S1130220310509F4019608959C0180912A01909169
S11302302B012630310511F401960895243031053F
S113024009F401970895CF93DF93C091BE07D0912D
S1130250BF07CE01E9DF90932B0180932A01CE01E1
S1130260D4DF9093530E8093520EDF91CF91089573
S11302702DE1FC012E9FC0012F9F900D1124680FCA
S1130280791FFB01EE0FFF1FE45DFE4F5183408396
S1130290089580912A0190912B012091BE073091FD
S11302A0BF072830310511F4019608952230310535
S11302B009F4019708958091520E9091530E209164
S11302C0BE073091BF072830310561F02230310577
S11302D049F02430310511F4019708952630310591
S11302E009F40196089580912A0190912B0120919F
S11302F0BE073091BF072830310511F401970895E6
S11303002230310509F40196089580912A019091D3
S11303102B012091BE073091BF072830310529F405
S11303208091520E9091530E08952230310529F494
S11303308091520E9091530E08952430310531F47A
S11303408091520E9091530E0196089526303105F6
S113035029F48091520E9091530E019708950F93B2
S11303601F93CF93DF93C091BE07D091BF07CE01F7
S11303705BDF8C01CE0149DF2DE1AC01249FC0017C
S1130380259F900D1124080F191FF801EE0FFF1F70
S1130390E054F84F80819181039719F454DF80E091
S11303A02FC077DFEC0187DF2DE1AC01249FC00172
S11303B0259F900D1124C80FD91FCC0FDD1FC054E9
S11303C0D84F88819981039719F4C9DE80E018C059
S11303D08ADFEC019ADF2DE1AC01249FC001259F47
S11303E0900D1124C80FD91FCC0FDD1FC054D84F56
S11303F088819981039719F4DDDE80E001C081E0F2
S1110400DF91CF911F910F910895F894FFCFD3
S113040E0E000E0006000D000E0005000C000E007E
S113041E04000B000E0003000B000F0002000B0083
S10D042E100001000C001000000093
S9030000FC
